{
  "contractName": "schtroumpf",
  "abi": [
    {
      "constant": true,
      "inputs": [
        {
          "name": "",
          "type": "uint256"
        }
      ],
      "name": "tab1",
      "outputs": [
        {
          "name": "",
          "type": "int256"
        }
      ],
      "payable": false,
      "stateMutability": "view",
      "type": "function"
    },
    {
      "constant": true,
      "inputs": [
        {
          "name": "",
          "type": "uint256"
        }
      ],
      "name": "tab2",
      "outputs": [
        {
          "name": "",
          "type": "int256"
        }
      ],
      "payable": false,
      "stateMutability": "view",
      "type": "function"
    },
    {
      "constant": false,
      "inputs": [
        {
          "name": "number",
          "type": "int256"
        }
      ],
      "name": "addToTab1",
      "outputs": [],
      "payable": false,
      "stateMutability": "nonpayable",
      "type": "function"
    },
    {
      "constant": false,
      "inputs": [
        {
          "name": "number",
          "type": "int256"
        }
      ],
      "name": "addToTab2",
      "outputs": [],
      "payable": false,
      "stateMutability": "nonpayable",
      "type": "function"
    },
    {
      "constant": false,
      "inputs": [],
      "name": "clearTab1",
      "outputs": [],
      "payable": false,
      "stateMutability": "nonpayable",
      "type": "function"
    },
    {
      "constant": false,
      "inputs": [],
      "name": "clearTab2",
      "outputs": [],
      "payable": false,
      "stateMutability": "nonpayable",
      "type": "function"
    },
    {
      "constant": true,
      "inputs": [],
      "name": "schtroumpfTab",
      "outputs": [
        {
          "name": "",
          "type": "int256"
        }
      ],
      "payable": false,
      "stateMutability": "view",
      "type": "function"
    }
  ],
  "bytecode": "0x608060405234801561001057600080fd5b506103ad806100206000396000f3fe60806040526004361061007d576000357c010000000000000000000000000000000000000000000000000000000090048063171319ec146100825780632df547d2146100bd57806332177137146100d457806339909cab1461010f5780634e7beeed1461015e578063d3b170f714610175578063fb625f64146101c4575b600080fd5b34801561008e57600080fd5b506100bb600480360360208110156100a557600080fd5b81019080803590602001909291905050506101ef565b005b3480156100c957600080fd5b506100d261021e565b005b3480156100e057600080fd5b5061010d600480360360208110156100f757600080fd5b810190808035906020019092919050505061022e565b005b34801561011b57600080fd5b506101486004803603602081101561013257600080fd5b810190808035906020019092919050505061025d565b6040518082815260200191505060405180910390f35b34801561016a57600080fd5b50610173610280565b005b34801561018157600080fd5b506101ae6004803603602081101561019857600080fd5b810190808035906020019092919050505061028f565b6040518082815260200191505060405180910390f35b3480156101d057600080fd5b506101d96102b2565b6040518082815260200191505060405180910390f35b600081908060018154018082558091505090600182039060005260206000200160009091929091909150555050565b6001600061022c919061033b565b565b600181908060018154018082558091505090600182039060005260206000200160009091929091909150555050565b60008181548110151561026c57fe5b906000526020600020016000915090505481565b60008061028d919061033b565b565b60018181548110151561029e57fe5b906000526020600020016000915090505481565b6000806000905060008090505b6000805490508110156103335760008090505b600180549050811015610325576001818154811015156102ee57fe5b906000526020600020015460008381548110151561030857fe5b9060005260206000200154028301925080806001019150506102d2565b5080806001019150506102bf565b508091505090565b5080546000825590600052602060002090810190610359919061035c565b50565b61037e91905b8082111561037a576000816000905550600101610362565b5090565b9056fea165627a7a7230582000e503af491e26158dd7bb404afc5be9a340bf8c972ca09a04982c8cd3b5b1540029",
  "source": "\n// SPDX-License-Identifier: MIT\npragma solidity >=0.4.22 <0.9.0;\n\ncontract schtroumpf {\n    int[] public tab1;\n    int[] public tab2;\n// Remplir les tableaux...\n    function addToTab1(int number) public {\n        tab1.push(number);\n    }\n    function addToTab2(int number) public {\n        tab2.push(number);\n    }\n// Effacer le contenu du tableau...\n    function clearTab1() public {\n        delete tab1;\n    }\n    function clearTab2() public {\n        delete tab2;\n    }\n// calcule le schtroumpf des deux tableaux...\n    function schtroumpfTab() public view returns (int) {\n        int S = 0;\n        for (uint256 x = 0; x < tab1.length; x++) {\n            for (uint256 y = 0; y < tab2.length; y++) {\n                S = S + tab1[x] * tab2[y];\n            }\n        }\n        return S;\n    }\n}",
  "sourcePath": "C:\\Users\\pc\\Desktop\\LST S6\\PFE\\schtroumpf\\contracts\\schtroumpf.sol",
  "compiler": {
    "name": "solc",
    "version": "0.5.1+commit.c8a2cb62.Emscripten.clang"
  },
  "schemaVersion": "3.4.16",
  "updatedAt": "2024-04-08T22:33:50.171Z",
  "networkType": "ethereum",
  "devdoc": {
    "methods": {}
  },
  "userdoc": {
    "methods": {}
  }
}